{
  "_format": "hh-sol-artifact-1",
  "contractName": "SeedNFT",
  "sourceName": "contracts/SeedNFT.sol",
  "abi": [
    {
      "inputs": [],
      "stateMutability": "nonpayable",
      "type": "constructor"
    },
    {
      "anonymous": false,
      "inputs": [
        {
          "indexed": true,
          "internalType": "address",
          "name": "owner",
          "type": "address"
        },
        {
          "indexed": true,
          "internalType": "address",
          "name": "approved",
          "type": "address"
        },
        {
          "indexed": true,
          "internalType": "uint256",
          "name": "tokenId",
          "type": "uint256"
        }
      ],
      "name": "Approval",
      "type": "event"
    },
    {
      "anonymous": false,
      "inputs": [
        {
          "indexed": true,
          "internalType": "address",
          "name": "owner",
          "type": "address"
        },
        {
          "indexed": true,
          "internalType": "address",
          "name": "operator",
          "type": "address"
        },
        {
          "indexed": false,
          "internalType": "bool",
          "name": "approved",
          "type": "bool"
        }
      ],
      "name": "ApprovalForAll",
      "type": "event"
    },
    {
      "anonymous": false,
      "inputs": [
        {
          "indexed": true,
          "internalType": "address",
          "name": "previousOwner",
          "type": "address"
        },
        {
          "indexed": true,
          "internalType": "address",
          "name": "newOwner",
          "type": "address"
        }
      ],
      "name": "OwnershipTransferred",
      "type": "event"
    },
    {
      "anonymous": false,
      "inputs": [
        {
          "indexed": true,
          "internalType": "address",
          "name": "from",
          "type": "address"
        },
        {
          "indexed": true,
          "internalType": "address",
          "name": "to",
          "type": "address"
        },
        {
          "indexed": true,
          "internalType": "uint256",
          "name": "tokenId",
          "type": "uint256"
        }
      ],
      "name": "Transfer",
      "type": "event"
    },
    {
      "inputs": [
        {
          "internalType": "address",
          "name": "to",
          "type": "address"
        },
        {
          "internalType": "uint256",
          "name": "tokenId",
          "type": "uint256"
        }
      ],
      "name": "approve",
      "outputs": [],
      "stateMutability": "nonpayable",
      "type": "function"
    },
    {
      "inputs": [
        {
          "internalType": "address",
          "name": "owner",
          "type": "address"
        }
      ],
      "name": "balanceOf",
      "outputs": [
        {
          "internalType": "uint256",
          "name": "",
          "type": "uint256"
        }
      ],
      "stateMutability": "view",
      "type": "function"
    },
    {
      "inputs": [
        {
          "internalType": "uint256",
          "name": "tokenId",
          "type": "uint256"
        }
      ],
      "name": "getApproved",
      "outputs": [
        {
          "internalType": "address",
          "name": "",
          "type": "address"
        }
      ],
      "stateMutability": "view",
      "type": "function"
    },
    {
      "inputs": [
        {
          "internalType": "address",
          "name": "owner",
          "type": "address"
        },
        {
          "internalType": "address",
          "name": "operator",
          "type": "address"
        }
      ],
      "name": "isApprovedForAll",
      "outputs": [
        {
          "internalType": "bool",
          "name": "",
          "type": "bool"
        }
      ],
      "stateMutability": "view",
      "type": "function"
    },
    {
      "inputs": [
        {
          "internalType": "address",
          "name": "recipient",
          "type": "address"
        },
        {
          "internalType": "string",
          "name": "tokenURI",
          "type": "string"
        }
      ],
      "name": "mintNFT",
      "outputs": [
        {
          "internalType": "uint256",
          "name": "",
          "type": "uint256"
        }
      ],
      "stateMutability": "nonpayable",
      "type": "function"
    },
    {
      "inputs": [],
      "name": "name",
      "outputs": [
        {
          "internalType": "string",
          "name": "",
          "type": "string"
        }
      ],
      "stateMutability": "view",
      "type": "function"
    },
    {
      "inputs": [],
      "name": "owner",
      "outputs": [
        {
          "internalType": "address",
          "name": "",
          "type": "address"
        }
      ],
      "stateMutability": "view",
      "type": "function"
    },
    {
      "inputs": [
        {
          "internalType": "uint256",
          "name": "tokenId",
          "type": "uint256"
        }
      ],
      "name": "ownerOf",
      "outputs": [
        {
          "internalType": "address",
          "name": "",
          "type": "address"
        }
      ],
      "stateMutability": "view",
      "type": "function"
    },
    {
      "inputs": [],
      "name": "renounceOwnership",
      "outputs": [],
      "stateMutability": "nonpayable",
      "type": "function"
    },
    {
      "inputs": [
        {
          "internalType": "address",
          "name": "from",
          "type": "address"
        },
        {
          "internalType": "address",
          "name": "to",
          "type": "address"
        },
        {
          "internalType": "uint256",
          "name": "tokenId",
          "type": "uint256"
        }
      ],
      "name": "safeTransferFrom",
      "outputs": [],
      "stateMutability": "nonpayable",
      "type": "function"
    },
    {
      "inputs": [
        {
          "internalType": "address",
          "name": "from",
          "type": "address"
        },
        {
          "internalType": "address",
          "name": "to",
          "type": "address"
        },
        {
          "internalType": "uint256",
          "name": "tokenId",
          "type": "uint256"
        },
        {
          "internalType": "bytes",
          "name": "_data",
          "type": "bytes"
        }
      ],
      "name": "safeTransferFrom",
      "outputs": [],
      "stateMutability": "nonpayable",
      "type": "function"
    },
    {
      "inputs": [
        {
          "internalType": "address",
          "name": "operator",
          "type": "address"
        },
        {
          "internalType": "bool",
          "name": "approved",
          "type": "bool"
        }
      ],
      "name": "setApprovalForAll",
      "outputs": [],
      "stateMutability": "nonpayable",
      "type": "function"
    },
    {
      "inputs": [
        {
          "internalType": "bytes4",
          "name": "interfaceId",
          "type": "bytes4"
        }
      ],
      "name": "supportsInterface",
      "outputs": [
        {
          "internalType": "bool",
          "name": "",
          "type": "bool"
        }
      ],
      "stateMutability": "view",
      "type": "function"
    },
    {
      "inputs": [],
      "name": "symbol",
      "outputs": [
        {
          "internalType": "string",
          "name": "",
          "type": "string"
        }
      ],
      "stateMutability": "view",
      "type": "function"
    },
    {
      "inputs": [
        {
          "internalType": "uint256",
          "name": "index",
          "type": "uint256"
        }
      ],
      "name": "tokenByIndex",
      "outputs": [
        {
          "internalType": "uint256",
          "name": "",
          "type": "uint256"
        }
      ],
      "stateMutability": "view",
      "type": "function"
    },
    {
      "inputs": [
        {
          "internalType": "address",
          "name": "owner",
          "type": "address"
        },
        {
          "internalType": "uint256",
          "name": "index",
          "type": "uint256"
        }
      ],
      "name": "tokenOfOwnerByIndex",
      "outputs": [
        {
          "internalType": "uint256",
          "name": "",
          "type": "uint256"
        }
      ],
      "stateMutability": "view",
      "type": "function"
    },
    {
      "inputs": [
        {
          "internalType": "uint256",
          "name": "tokenId",
          "type": "uint256"
        }
      ],
      "name": "tokenURI",
      "outputs": [
        {
          "internalType": "string",
          "name": "",
          "type": "string"
        }
      ],
      "stateMutability": "view",
      "type": "function"
    },
    {
      "inputs": [],
      "name": "totalSupply",
      "outputs": [
        {
          "internalType": "uint256",
          "name": "",
          "type": "uint256"
        }
      ],
      "stateMutability": "view",
      "type": "function"
    },
    {
      "inputs": [
        {
          "internalType": "address",
          "name": "from",
          "type": "address"
        },
        {
          "internalType": "address",
          "name": "to",
          "type": "address"
        },
        {
          "internalType": "uint256",
          "name": "tokenId",
          "type": "uint256"
        }
      ],
      "name": "transferFrom",
      "outputs": [],
      "stateMutability": "nonpayable",
      "type": "function"
    },
    {
      "inputs": [
        {
          "internalType": "address",
          "name": "newOwner",
          "type": "address"
        }
      ],
      "name": "transferOwnership",
      "outputs": [],
      "stateMutability": "nonpayable",
      "type": "function"
    }
  ],
  "bytecode": "0x60806040523480156200001157600080fd5b506040518060400160405280600781526020017f536565644e4654000000000000000000000000000000000000000000000000008152506040518060400160405280600481526020017f5365656400000000000000000000000000000000000000000000000000000000815250816000908051906020019062000096929190620001a6565b508060019080519060200190620000af929190620001a6565b505050620000d2620000c6620000d860201b60201c565b620000e060201b60201c565b620002bb565b600033905090565b6000600b60009054906101000a900473ffffffffffffffffffffffffffffffffffffffff16905081600b60006101000a81548173ffffffffffffffffffffffffffffffffffffffff021916908373ffffffffffffffffffffffffffffffffffffffff1602179055508173ffffffffffffffffffffffffffffffffffffffff168173ffffffffffffffffffffffffffffffffffffffff167f8be0079c531659141344cd1fd0a4f28419497f9722a3daafe3b4186f6b6457e060405160405180910390a35050565b828054620001b49062000256565b90600052602060002090601f016020900481019282620001d8576000855562000224565b82601f10620001f357805160ff191683800117855562000224565b8280016001018555821562000224579182015b828111156200022357825182559160200191906001019062000206565b5b50905062000233919062000237565b5090565b5b808211156200025257600081600090555060010162000238565b5090565b600060028204905060018216806200026f57607f821691505b602082108114156200028657620002856200028c565b5b50919050565b7f4e487b7100000000000000000000000000000000000000000000000000000000600052602260045260246000fd5b6137cf80620002cb6000396000f3fe608060405234801561001057600080fd5b506004361061012c5760003560e01c806370a08231116100ad578063b88d4fde11610071578063b88d4fde14610343578063c87b56dd1461035f578063e985e9c51461038f578063eacabe14146103bf578063f2fde38b146103ef5761012c565b806370a08231146102b1578063715018a6146102e15780638da5cb5b146102eb57806395d89b4114610309578063a22cb465146103275761012c565b806323b872dd116100f457806323b872dd146101e95780632f745c591461020557806342842e0e146102355780634f6ccce7146102515780636352211e146102815761012c565b806301ffc9a71461013157806306fdde0314610161578063081812fc1461017f578063095ea7b3146101af57806318160ddd146101cb575b600080fd5b61014b600480360381019061014691906125dc565b61040b565b6040516101589190612a7a565b60405180910390f35b61016961041d565b6040516101769190612a95565b60405180910390f35b61019960048036038101906101949190612636565b6104af565b6040516101a69190612a13565b60405180910390f35b6101c960048036038101906101c4919061259c565b610534565b005b6101d361064c565b6040516101e09190612d37565b60405180910390f35b61020360048036038101906101fe919061242a565b610659565b005b61021f600480360381019061021a919061259c565b6106b9565b60405161022c9190612d37565b60405180910390f35b61024f600480360381019061024a919061242a565b61075e565b005b61026b60048036038101906102669190612636565b61077e565b6040516102789190612d37565b60405180910390f35b61029b60048036038101906102969190612636565b6107ef565b6040516102a89190612a13565b60405180910390f35b6102cb60048036038101906102c691906123bd565b6108a1565b6040516102d89190612d37565b60405180910390f35b6102e9610959565b005b6102f36109e1565b6040516103009190612a13565b60405180910390f35b610311610a0b565b60405161031e9190612a95565b60405180910390f35b610341600480360381019061033c9190612500565b610a9d565b005b61035d6004803603810190610358919061247d565b610c1e565b005b61037960048036038101906103749190612636565b610c80565b6040516103869190612a95565b60405180910390f35b6103a960048036038101906103a491906123ea565b610c92565b6040516103b69190612a7a565b60405180910390f35b6103d960048036038101906103d49190612540565b610d26565b6040516103e69190612d37565b60405180910390f35b610409600480360381019061040491906123bd565b610dda565b005b600061041682610ed2565b9050919050565b60606000805461042c90612f8d565b80601f016020809104026020016040519081016040528092919081815260200182805461045890612f8d565b80156104a55780601f1061047a576101008083540402835291602001916104a5565b820191906000526020600020905b81548152906001019060200180831161048857829003601f168201915b5050505050905090565b60006104ba82610f4c565b6104f9576040517f08c379a00000000000000000000000000000000000000000000000000000000081526004016104f090612c57565b60405180910390fd5b6004600083815260200190815260200160002060009054906101000a900473ffffffffffffffffffffffffffffffffffffffff169050919050565b600061053f826107ef565b90508073ffffffffffffffffffffffffffffffffffffffff168373ffffffffffffffffffffffffffffffffffffffff1614156105b0576040517f08c379a00000000000000000000000000000000000000000000000000000000081526004016105a790612cd7565b60405180910390fd5b8073ffffffffffffffffffffffffffffffffffffffff166105cf610fb8565b73ffffffffffffffffffffffffffffffffffffffff1614806105fe57506105fd816105f8610fb8565b610c92565b5b61063d576040517f08c379a000000000000000000000000000000000000000000000000000000000815260040161063490612b97565b60405180910390fd5b6106478383610fc0565b505050565b6000600980549050905090565b61066a610664610fb8565b82611079565b6106a9576040517f08c379a00000000000000000000000000000000000000000000000000000000081526004016106a090612cf7565b60405180910390fd5b6106b4838383611157565b505050565b60006106c4836108a1565b8210610705576040517f08c379a00000000000000000000000000000000000000000000000000000000081526004016106fc90612ab7565b60405180910390fd5b600760008473ffffffffffffffffffffffffffffffffffffffff1673ffffffffffffffffffffffffffffffffffffffff168152602001908152602001600020600083815260200190815260200160002054905092915050565b61077983838360405180602001604052806000815250610c1e565b505050565b600061078861064c565b82106107c9576040517f08c379a00000000000000000000000000000000000000000000000000000000081526004016107c090612d17565b60405180910390fd5b600982815481106107dd576107dc613126565b5b90600052602060002001549050919050565b6000806002600084815260200190815260200160002060009054906101000a900473ffffffffffffffffffffffffffffffffffffffff169050600073ffffffffffffffffffffffffffffffffffffffff168173ffffffffffffffffffffffffffffffffffffffff161415610898576040517f08c379a000000000000000000000000000000000000000000000000000000000815260040161088f90612bd7565b60405180910390fd5b80915050919050565b60008073ffffffffffffffffffffffffffffffffffffffff168273ffffffffffffffffffffffffffffffffffffffff161415610912576040517f08c379a000000000000000000000000000000000000000000000000000000000815260040161090990612bb7565b60405180910390fd5b600360008373ffffffffffffffffffffffffffffffffffffffff1673ffffffffffffffffffffffffffffffffffffffff168152602001908152602001600020549050919050565b610961610fb8565b73ffffffffffffffffffffffffffffffffffffffff1661097f6109e1565b73ffffffffffffffffffffffffffffffffffffffff16146109d5576040517f08c379a00000000000000000000000000000000000000000000000000000000081526004016109cc90612c77565b60405180910390fd5b6109df60006113b3565b565b6000600b60009054906101000a900473ffffffffffffffffffffffffffffffffffffffff16905090565b606060018054610a1a90612f8d565b80601f0160208091040260200160405190810160405280929190818152602001828054610a4690612f8d565b8015610a935780601f10610a6857610100808354040283529160200191610a93565b820191906000526020600020905b815481529060010190602001808311610a7657829003601f168201915b5050505050905090565b610aa5610fb8565b73ffffffffffffffffffffffffffffffffffffffff168273ffffffffffffffffffffffffffffffffffffffff161415610b13576040517f08c379a0000000000000000000000000000000000000000000000000000000008152600401610b0a90612b57565b60405180910390fd5b8060056000610b20610fb8565b73ffffffffffffffffffffffffffffffffffffffff1673ffffffffffffffffffffffffffffffffffffffff16815260200190815260200160002060008473ffffffffffffffffffffffffffffffffffffffff1673ffffffffffffffffffffffffffffffffffffffff16815260200190815260200160002060006101000a81548160ff0219169083151502179055508173ffffffffffffffffffffffffffffffffffffffff16610bcd610fb8565b73ffffffffffffffffffffffffffffffffffffffff167f17307eab39ab6107e8899845ad3d59bd9653f200f220920489ca2b5937696c3183604051610c129190612a7a565b60405180910390a35050565b610c2f610c29610fb8565b83611079565b610c6e576040517f08c379a0000000000000000000000000000000000000000000000000000000008152600401610c6590612cf7565b60405180910390fd5b610c7a84848484611479565b50505050565b6060610c8b826114d5565b9050919050565b6000600560008473ffffffffffffffffffffffffffffffffffffffff1673ffffffffffffffffffffffffffffffffffffffff16815260200190815260200160002060008373ffffffffffffffffffffffffffffffffffffffff1673ffffffffffffffffffffffffffffffffffffffff16815260200190815260200160002060009054906101000a900460ff16905092915050565b6000610d30610fb8565b73ffffffffffffffffffffffffffffffffffffffff16610d4e6109e1565b73ffffffffffffffffffffffffffffffffffffffff1614610da4576040517f08c379a0000000000000000000000000000000000000000000000000000000008152600401610d9b90612c77565b60405180910390fd5b610dae600c611627565b6000610dba600c61163d565b9050610dc6848261164b565b610dd08184611819565b8091505092915050565b610de2610fb8565b73ffffffffffffffffffffffffffffffffffffffff16610e006109e1565b73ffffffffffffffffffffffffffffffffffffffff1614610e56576040517f08c379a0000000000000000000000000000000000000000000000000000000008152600401610e4d90612c77565b60405180910390fd5b600073ffffffffffffffffffffffffffffffffffffffff168173ffffffffffffffffffffffffffffffffffffffff161415610ec6576040517f08c379a0000000000000000000000000000000000000000000000000000000008152600401610ebd90612af7565b60405180910390fd5b610ecf816113b3565b50565b60007f780e9d63000000000000000000000000000000000000000000000000000000007bffffffffffffffffffffffffffffffffffffffffffffffffffffffff1916827bffffffffffffffffffffffffffffffffffffffffffffffffffffffff19161480610f455750610f448261188d565b5b9050919050565b60008073ffffffffffffffffffffffffffffffffffffffff166002600084815260200190815260200160002060009054906101000a900473ffffffffffffffffffffffffffffffffffffffff1673ffffffffffffffffffffffffffffffffffffffff1614159050919050565b600033905090565b816004600083815260200190815260200160002060006101000a81548173ffffffffffffffffffffffffffffffffffffffff021916908373ffffffffffffffffffffffffffffffffffffffff160217905550808273ffffffffffffffffffffffffffffffffffffffff16611033836107ef565b73ffffffffffffffffffffffffffffffffffffffff167f8c5be1e5ebec7d5bd14f71427d1e84f3dd0314c0f7b2291e5b200ac8c7c3b92560405160405180910390a45050565b600061108482610f4c565b6110c3576040517f08c379a00000000000000000000000000000000000000000000000000000000081526004016110ba90612b77565b60405180910390fd5b60006110ce836107ef565b90508073ffffffffffffffffffffffffffffffffffffffff168473ffffffffffffffffffffffffffffffffffffffff16148061113d57508373ffffffffffffffffffffffffffffffffffffffff16611125846104af565b73ffffffffffffffffffffffffffffffffffffffff16145b8061114e575061114d8185610c92565b5b91505092915050565b8273ffffffffffffffffffffffffffffffffffffffff16611177826107ef565b73ffffffffffffffffffffffffffffffffffffffff16146111cd576040517f08c379a00000000000000000000000000000000000000000000000000000000081526004016111c490612c97565b60405180910390fd5b600073ffffffffffffffffffffffffffffffffffffffff168273ffffffffffffffffffffffffffffffffffffffff16141561123d576040517f08c379a000000000000000000000000000000000000000000000000000000000815260040161123490612b37565b60405180910390fd5b61124883838361196f565b611253600082610fc0565b6001600360008573ffffffffffffffffffffffffffffffffffffffff1673ffffffffffffffffffffffffffffffffffffffff16815260200190815260200160002060008282546112a39190612ea3565b925050819055506001600360008473ffffffffffffffffffffffffffffffffffffffff1673ffffffffffffffffffffffffffffffffffffffff16815260200190815260200160002060008282546112fa9190612e1c565b92505081905550816002600083815260200190815260200160002060006101000a81548173ffffffffffffffffffffffffffffffffffffffff021916908373ffffffffffffffffffffffffffffffffffffffff160217905550808273ffffffffffffffffffffffffffffffffffffffff168473ffffffffffffffffffffffffffffffffffffffff167fddf252ad1be2c89b69c2b068fc378daa952ba7f163c4a11628f55a4df523b3ef60405160405180910390a4505050565b6000600b60009054906101000a900473ffffffffffffffffffffffffffffffffffffffff16905081600b60006101000a81548173ffffffffffffffffffffffffffffffffffffffff021916908373ffffffffffffffffffffffffffffffffffffffff1602179055508173ffffffffffffffffffffffffffffffffffffffff168173ffffffffffffffffffffffffffffffffffffffff167f8be0079c531659141344cd1fd0a4f28419497f9722a3daafe3b4186f6b6457e060405160405180910390a35050565b611484848484611157565b6114908484848461197f565b6114cf576040517f08c379a00000000000000000000000000000000000000000000000000000000081526004016114c690612ad7565b60405180910390fd5b50505050565b60606114e082610f4c565b61151f576040517f08c379a000000000000000000000000000000000000000000000000000000000815260040161151690612c37565b60405180910390fd5b600060066000848152602001908152602001600020805461153f90612f8d565b80601f016020809104026020016040519081016040528092919081815260200182805461156b90612f8d565b80156115b85780601f1061158d576101008083540402835291602001916115b8565b820191906000526020600020905b81548152906001019060200180831161159b57829003601f168201915b5050505050905060006115c9611b16565b90506000815114156115df578192505050611622565b6000825111156116145780826040516020016115fc9291906129ef565b60405160208183030381529060405292505050611622565b61161d84611b2d565b925050505b919050565b6001816000016000828254019250508190555050565b600081600001549050919050565b600073ffffffffffffffffffffffffffffffffffffffff168273ffffffffffffffffffffffffffffffffffffffff1614156116bb576040517f08c379a00000000000000000000000000000000000000000000000000000000081526004016116b290612c17565b60405180910390fd5b6116c481610f4c565b15611704576040517f08c379a00000000000000000000000000000000000000000000000000000000081526004016116fb90612b17565b60405180910390fd5b6117106000838361196f565b6001600360008473ffffffffffffffffffffffffffffffffffffffff1673ffffffffffffffffffffffffffffffffffffffff16815260200190815260200160002060008282546117609190612e1c565b92505081905550816002600083815260200190815260200160002060006101000a81548173ffffffffffffffffffffffffffffffffffffffff021916908373ffffffffffffffffffffffffffffffffffffffff160217905550808273ffffffffffffffffffffffffffffffffffffffff16600073ffffffffffffffffffffffffffffffffffffffff167fddf252ad1be2c89b69c2b068fc378daa952ba7f163c4a11628f55a4df523b3ef60405160405180910390a45050565b61182282610f4c565b611861576040517f08c379a000000000000000000000000000000000000000000000000000000000815260040161185890612bf7565b60405180910390fd5b806006600084815260200190815260200160002090805190602001906118889291906121d1565b505050565b60007f80ac58cd000000000000000000000000000000000000000000000000000000007bffffffffffffffffffffffffffffffffffffffffffffffffffffffff1916827bffffffffffffffffffffffffffffffffffffffffffffffffffffffff1916148061195857507f5b5e139f000000000000000000000000000000000000000000000000000000007bffffffffffffffffffffffffffffffffffffffffffffffffffffffff1916827bffffffffffffffffffffffffffffffffffffffffffffffffffffffff1916145b80611968575061196782611bd4565b5b9050919050565b61197a838383611c3e565b505050565b60006119a08473ffffffffffffffffffffffffffffffffffffffff16611d52565b15611b09578373ffffffffffffffffffffffffffffffffffffffff1663150b7a026119c9610fb8565b8786866040518563ffffffff1660e01b81526004016119eb9493929190612a2e565b602060405180830381600087803b158015611a0557600080fd5b505af1925050508015611a3657506040513d601f19601f82011682018060405250810190611a339190612609565b60015b611ab9573d8060008114611a66576040519150601f19603f3d011682016040523d82523d6000602084013e611a6b565b606091505b50600081511415611ab1576040517f08c379a0000000000000000000000000000000000000000000000000000000008152600401611aa890612ad7565b60405180910390fd5b805181602001fd5b63150b7a0260e01b7bffffffffffffffffffffffffffffffffffffffffffffffffffffffff1916817bffffffffffffffffffffffffffffffffffffffffffffffffffffffff191614915050611b0e565b600190505b949350505050565b606060405180602001604052806000815250905090565b6060611b3882610f4c565b611b77576040517f08c379a0000000000000000000000000000000000000000000000000000000008152600401611b6e90612cb7565b60405180910390fd5b6000611b81611b16565b90506000815111611ba15760405180602001604052806000815250611bcc565b80611bab84611d65565b604051602001611bbc9291906129ef565b6040516020818303038152906040525b915050919050565b60007f01ffc9a7000000000000000000000000000000000000000000000000000000007bffffffffffffffffffffffffffffffffffffffffffffffffffffffff1916827bffffffffffffffffffffffffffffffffffffffffffffffffffffffff1916149050919050565b611c49838383611ec6565b600073ffffffffffffffffffffffffffffffffffffffff168373ffffffffffffffffffffffffffffffffffffffff161415611c8c57611c8781611ecb565b611ccb565b8173ffffffffffffffffffffffffffffffffffffffff168373ffffffffffffffffffffffffffffffffffffffff1614611cca57611cc98382611f14565b5b5b600073ffffffffffffffffffffffffffffffffffffffff168273ffffffffffffffffffffffffffffffffffffffff161415611d0e57611d0981612081565b611d4d565b8273ffffffffffffffffffffffffffffffffffffffff168273ffffffffffffffffffffffffffffffffffffffff1614611d4c57611d4b8282612152565b5b5b505050565b600080823b905060008111915050919050565b60606000821415611dad576040518060400160405280600181526020017f30000000000000000000000000000000000000000000000000000000000000008152509050611ec1565b600082905060005b60008214611ddf578080611dc890612ff0565b915050600a82611dd89190612e72565b9150611db5565b60008167ffffffffffffffff811115611dfb57611dfa613155565b5b6040519080825280601f01601f191660200182016040528015611e2d5781602001600182028036833780820191505090505b5090505b60008514611eba57600182611e469190612ea3565b9150600a85611e559190613039565b6030611e619190612e1c565b60f81b818381518110611e7757611e76613126565b5b60200101907effffffffffffffffffffffffffffffffffffffffffffffffffffffffffffff1916908160001a905350600a85611eb39190612e72565b9450611e31565b8093505050505b919050565b505050565b600980549050600a600083815260200190815260200160002081905550600981908060018154018082558091505060019003906000526020600020016000909190919091505550565b60006001611f21846108a1565b611f2b9190612ea3565b9050600060086000848152602001908152602001600020549050818114612010576000600760008673ffffffffffffffffffffffffffffffffffffffff1673ffffffffffffffffffffffffffffffffffffffff168152602001908152602001600020600084815260200190815260200160002054905080600760008773ffffffffffffffffffffffffffffffffffffffff1673ffffffffffffffffffffffffffffffffffffffff168152602001908152602001600020600084815260200190815260200160002081905550816008600083815260200190815260200160002081905550505b6008600084815260200190815260200160002060009055600760008573ffffffffffffffffffffffffffffffffffffffff1673ffffffffffffffffffffffffffffffffffffffff16815260200190815260200160002060008381526020019081526020016000206000905550505050565b600060016009805490506120959190612ea3565b90506000600a60008481526020019081526020016000205490506000600983815481106120c5576120c4613126565b5b9060005260206000200154905080600983815481106120e7576120e6613126565b5b906000526020600020018190555081600a600083815260200190815260200160002081905550600a6000858152602001908152602001600020600090556009805480612136576121356130f7565b5b6001900381819060005260206000200160009055905550505050565b600061215d836108a1565b905081600760008573ffffffffffffffffffffffffffffffffffffffff1673ffffffffffffffffffffffffffffffffffffffff168152602001908152602001600020600083815260200190815260200160002081905550806008600084815260200190815260200160002081905550505050565b8280546121dd90612f8d565b90600052602060002090601f0160209004810192826121ff5760008555612246565b82601f1061221857805160ff1916838001178555612246565b82800160010185558215612246579182015b8281111561224557825182559160200191906001019061222a565b5b5090506122539190612257565b5090565b5b80821115612270576000816000905550600101612258565b5090565b600061228761228284612d77565b612d52565b9050828152602081018484840111156122a3576122a2613189565b5b6122ae848285612f4b565b509392505050565b60006122c96122c484612da8565b612d52565b9050828152602081018484840111156122e5576122e4613189565b5b6122f0848285612f4b565b509392505050565b6000813590506123078161373d565b92915050565b60008135905061231c81613754565b92915050565b6000813590506123318161376b565b92915050565b6000815190506123468161376b565b92915050565b600082601f83011261236157612360613184565b5b8135612371848260208601612274565b91505092915050565b600082601f83011261238f5761238e613184565b5b813561239f8482602086016122b6565b91505092915050565b6000813590506123b781613782565b92915050565b6000602082840312156123d3576123d2613193565b5b60006123e1848285016122f8565b91505092915050565b6000806040838503121561240157612400613193565b5b600061240f858286016122f8565b9250506020612420858286016122f8565b9150509250929050565b60008060006060848603121561244357612442613193565b5b6000612451868287016122f8565b9350506020612462868287016122f8565b9250506040612473868287016123a8565b9150509250925092565b6000806000806080858703121561249757612496613193565b5b60006124a5878288016122f8565b94505060206124b6878288016122f8565b93505060406124c7878288016123a8565b925050606085013567ffffffffffffffff8111156124e8576124e761318e565b5b6124f48782880161234c565b91505092959194509250565b6000806040838503121561251757612516613193565b5b6000612525858286016122f8565b92505060206125368582860161230d565b9150509250929050565b6000806040838503121561255757612556613193565b5b6000612565858286016122f8565b925050602083013567ffffffffffffffff8111156125865761258561318e565b5b6125928582860161237a565b9150509250929050565b600080604083850312156125b3576125b2613193565b5b60006125c1858286016122f8565b92505060206125d2858286016123a8565b9150509250929050565b6000602082840312156125f2576125f1613193565b5b600061260084828501612322565b91505092915050565b60006020828403121561261f5761261e613193565b5b600061262d84828501612337565b91505092915050565b60006020828403121561264c5761264b613193565b5b600061265a848285016123a8565b91505092915050565b61266c81612ed7565b82525050565b61267b81612ee9565b82525050565b600061268c82612dd9565b6126968185612def565b93506126a6818560208601612f5a565b6126af81613198565b840191505092915050565b60006126c582612de4565b6126cf8185612e00565b93506126df818560208601612f5a565b6126e881613198565b840191505092915050565b60006126fe82612de4565b6127088185612e11565b9350612718818560208601612f5a565b80840191505092915050565b6000612731602b83612e00565b915061273c826131a9565b604082019050919050565b6000612754603283612e00565b915061275f826131f8565b604082019050919050565b6000612777602683612e00565b915061278282613247565b604082019050919050565b600061279a601c83612e00565b91506127a582613296565b602082019050919050565b60006127bd602483612e00565b91506127c8826132bf565b604082019050919050565b60006127e0601983612e00565b91506127eb8261330e565b602082019050919050565b6000612803602c83612e00565b915061280e82613337565b604082019050919050565b6000612826603883612e00565b915061283182613386565b604082019050919050565b6000612849602a83612e00565b9150612854826133d5565b604082019050919050565b600061286c602983612e00565b915061287782613424565b604082019050919050565b600061288f602e83612e00565b915061289a82613473565b604082019050919050565b60006128b2602083612e00565b91506128bd826134c2565b602082019050919050565b60006128d5603183612e00565b91506128e0826134eb565b604082019050919050565b60006128f8602c83612e00565b91506129038261353a565b604082019050919050565b600061291b602083612e00565b915061292682613589565b602082019050919050565b600061293e602983612e00565b9150612949826135b2565b604082019050919050565b6000612961602f83612e00565b915061296c82613601565b604082019050919050565b6000612984602183612e00565b915061298f82613650565b604082019050919050565b60006129a7603183612e00565b91506129b28261369f565b604082019050919050565b60006129ca602c83612e00565b91506129d5826136ee565b604082019050919050565b6129e981612f41565b82525050565b60006129fb82856126f3565b9150612a0782846126f3565b91508190509392505050565b6000602082019050612a286000830184612663565b92915050565b6000608082019050612a436000830187612663565b612a506020830186612663565b612a5d60408301856129e0565b8181036060830152612a6f8184612681565b905095945050505050565b6000602082019050612a8f6000830184612672565b92915050565b60006020820190508181036000830152612aaf81846126ba565b905092915050565b60006020820190508181036000830152612ad081612724565b9050919050565b60006020820190508181036000830152612af081612747565b9050919050565b60006020820190508181036000830152612b108161276a565b9050919050565b60006020820190508181036000830152612b308161278d565b9050919050565b60006020820190508181036000830152612b50816127b0565b9050919050565b60006020820190508181036000830152612b70816127d3565b9050919050565b60006020820190508181036000830152612b90816127f6565b9050919050565b60006020820190508181036000830152612bb081612819565b9050919050565b60006020820190508181036000830152612bd08161283c565b9050919050565b60006020820190508181036000830152612bf08161285f565b9050919050565b60006020820190508181036000830152612c1081612882565b9050919050565b60006020820190508181036000830152612c30816128a5565b9050919050565b60006020820190508181036000830152612c50816128c8565b9050919050565b60006020820190508181036000830152612c70816128eb565b9050919050565b60006020820190508181036000830152612c908161290e565b9050919050565b60006020820190508181036000830152612cb081612931565b9050919050565b60006020820190508181036000830152612cd081612954565b9050919050565b60006020820190508181036000830152612cf081612977565b9050919050565b60006020820190508181036000830152612d108161299a565b9050919050565b60006020820190508181036000830152612d30816129bd565b9050919050565b6000602082019050612d4c60008301846129e0565b92915050565b6000612d5c612d6d565b9050612d688282612fbf565b919050565b6000604051905090565b600067ffffffffffffffff821115612d9257612d91613155565b5b612d9b82613198565b9050602081019050919050565b600067ffffffffffffffff821115612dc357612dc2613155565b5b612dcc82613198565b9050602081019050919050565b600081519050919050565b600081519050919050565b600082825260208201905092915050565b600082825260208201905092915050565b600081905092915050565b6000612e2782612f41565b9150612e3283612f41565b9250827fffffffffffffffffffffffffffffffffffffffffffffffffffffffffffffffff03821115612e6757612e6661306a565b5b828201905092915050565b6000612e7d82612f41565b9150612e8883612f41565b925082612e9857612e97613099565b5b828204905092915050565b6000612eae82612f41565b9150612eb983612f41565b925082821015612ecc57612ecb61306a565b5b828203905092915050565b6000612ee282612f21565b9050919050565b60008115159050919050565b60007fffffffff0000000000000000000000000000000000000000000000000000000082169050919050565b600073ffffffffffffffffffffffffffffffffffffffff82169050919050565b6000819050919050565b82818337600083830152505050565b60005b83811015612f78578082015181840152602081019050612f5d565b83811115612f87576000848401525b50505050565b60006002820490506001821680612fa557607f821691505b60208210811415612fb957612fb86130c8565b5b50919050565b612fc882613198565b810181811067ffffffffffffffff82111715612fe757612fe6613155565b5b80604052505050565b6000612ffb82612f41565b91507fffffffffffffffffffffffffffffffffffffffffffffffffffffffffffffffff82141561302e5761302d61306a565b5b600182019050919050565b600061304482612f41565b915061304f83612f41565b92508261305f5761305e613099565b5b828206905092915050565b7f4e487b7100000000000000000000000000000000000000000000000000000000600052601160045260246000fd5b7f4e487b7100000000000000000000000000000000000000000000000000000000600052601260045260246000fd5b7f4e487b7100000000000000000000000000000000000000000000000000000000600052602260045260246000fd5b7f4e487b7100000000000000000000000000000000000000000000000000000000600052603160045260246000fd5b7f4e487b7100000000000000000000000000000000000000000000000000000000600052603260045260246000fd5b7f4e487b7100000000000000000000000000000000000000000000000000000000600052604160045260246000fd5b600080fd5b600080fd5b600080fd5b600080fd5b6000601f19601f8301169050919050565b7f455243373231456e756d657261626c653a206f776e657220696e646578206f7560008201527f74206f6620626f756e6473000000000000000000000000000000000000000000602082015250565b7f4552433732313a207472616e7366657220746f206e6f6e20455243373231526560008201527f63656976657220696d706c656d656e7465720000000000000000000000000000602082015250565b7f4f776e61626c653a206e6577206f776e657220697320746865207a65726f206160008201527f6464726573730000000000000000000000000000000000000000000000000000602082015250565b7f4552433732313a20746f6b656e20616c7265616479206d696e74656400000000600082015250565b7f4552433732313a207472616e7366657220746f20746865207a65726f2061646460008201527f7265737300000000000000000000000000000000000000000000000000000000602082015250565b7f4552433732313a20617070726f766520746f2063616c6c657200000000000000600082015250565b7f4552433732313a206f70657261746f7220717565727920666f72206e6f6e657860008201527f697374656e7420746f6b656e0000000000000000000000000000000000000000602082015250565b7f4552433732313a20617070726f76652063616c6c6572206973206e6f74206f7760008201527f6e6572206e6f7220617070726f76656420666f7220616c6c0000000000000000602082015250565b7f4552433732313a2062616c616e636520717565727920666f7220746865207a6560008201527f726f206164647265737300000000000000000000000000000000000000000000602082015250565b7f4552433732313a206f776e657220717565727920666f72206e6f6e657869737460008201527f656e7420746f6b656e0000000000000000000000000000000000000000000000602082015250565b7f45524337323155524953746f726167653a2055524920736574206f66206e6f6e60008201527f6578697374656e7420746f6b656e000000000000000000000000000000000000602082015250565b7f4552433732313a206d696e7420746f20746865207a65726f2061646472657373600082015250565b7f45524337323155524953746f726167653a2055524920717565727920666f722060008201527f6e6f6e6578697374656e7420746f6b656e000000000000000000000000000000602082015250565b7f4552433732313a20617070726f76656420717565727920666f72206e6f6e657860008201527f697374656e7420746f6b656e0000000000000000000000000000000000000000602082015250565b7f4f776e61626c653a2063616c6c6572206973206e6f7420746865206f776e6572600082015250565b7f4552433732313a207472616e73666572206f6620746f6b656e2074686174206960008201527f73206e6f74206f776e0000000000000000000000000000000000000000000000602082015250565b7f4552433732314d657461646174613a2055524920717565727920666f72206e6f60008201527f6e6578697374656e7420746f6b656e0000000000000000000000000000000000602082015250565b7f4552433732313a20617070726f76616c20746f2063757272656e74206f776e6560008201527f7200000000000000000000000000000000000000000000000000000000000000602082015250565b7f4552433732313a207472616e736665722063616c6c6572206973206e6f74206f60008201527f776e6572206e6f7220617070726f766564000000000000000000000000000000602082015250565b7f455243373231456e756d657261626c653a20676c6f62616c20696e646578206f60008201527f7574206f6620626f756e64730000000000000000000000000000000000000000602082015250565b61374681612ed7565b811461375157600080fd5b50565b61375d81612ee9565b811461376857600080fd5b50565b61377481612ef5565b811461377f57600080fd5b50565b61378b81612f41565b811461379657600080fd5b5056fea26469706673582212204d98450d0b47ec56059d719b3c38d0f779bdfdf58957f03d1308544ff70bea4264736f6c63430008060033",
  "linkReferences": {},
  "deployedLinkReferences": {}
}