{
  "_format": "hh-sol-artifact-1",
  "contractName": "SeedNFT",
  "sourceName": "contracts/SeedNFT.sol",
  "abi": [
    {
      "inputs": [],
      "stateMutability": "nonpayable",
      "type": "constructor"
    },
    {
      "anonymous": false,
      "inputs": [
        {
          "indexed": true,
          "internalType": "address",
          "name": "owner",
          "type": "address"
        },
        {
          "indexed": true,
          "internalType": "address",
          "name": "approved",
          "type": "address"
        },
        {
          "indexed": true,
          "internalType": "uint256",
          "name": "tokenId",
          "type": "uint256"
        }
      ],
      "name": "Approval",
      "type": "event"
    },
    {
      "anonymous": false,
      "inputs": [
        {
          "indexed": true,
          "internalType": "address",
          "name": "owner",
          "type": "address"
        },
        {
          "indexed": true,
          "internalType": "address",
          "name": "operator",
          "type": "address"
        },
        {
          "indexed": false,
          "internalType": "bool",
          "name": "approved",
          "type": "bool"
        }
      ],
      "name": "ApprovalForAll",
      "type": "event"
    },
    {
      "anonymous": false,
      "inputs": [
        {
          "indexed": true,
          "internalType": "address",
          "name": "previousOwner",
          "type": "address"
        },
        {
          "indexed": true,
          "internalType": "address",
          "name": "newOwner",
          "type": "address"
        }
      ],
      "name": "OwnershipTransferred",
      "type": "event"
    },
    {
      "anonymous": false,
      "inputs": [
        {
          "indexed": true,
          "internalType": "address",
          "name": "from",
          "type": "address"
        },
        {
          "indexed": true,
          "internalType": "address",
          "name": "to",
          "type": "address"
        },
        {
          "indexed": true,
          "internalType": "uint256",
          "name": "tokenId",
          "type": "uint256"
        }
      ],
      "name": "Transfer",
      "type": "event"
    },
    {
      "inputs": [
        {
          "internalType": "uint256",
          "name": "index",
          "type": "uint256"
        },
        {
          "internalType": "string",
          "name": "category",
          "type": "string"
        }
      ],
      "name": "_setTokenCategoryByIndex",
      "outputs": [],
      "stateMutability": "nonpayable",
      "type": "function"
    },
    {
      "inputs": [
        {
          "internalType": "address",
          "name": "to",
          "type": "address"
        },
        {
          "internalType": "uint256",
          "name": "tokenId",
          "type": "uint256"
        }
      ],
      "name": "approve",
      "outputs": [],
      "stateMutability": "nonpayable",
      "type": "function"
    },
    {
      "inputs": [
        {
          "internalType": "address",
          "name": "owner",
          "type": "address"
        }
      ],
      "name": "balanceOf",
      "outputs": [
        {
          "internalType": "uint256",
          "name": "",
          "type": "uint256"
        }
      ],
      "stateMutability": "view",
      "type": "function"
    },
    {
      "inputs": [
        {
          "internalType": "uint256",
          "name": "tokenId",
          "type": "uint256"
        }
      ],
      "name": "getApproved",
      "outputs": [
        {
          "internalType": "address",
          "name": "",
          "type": "address"
        }
      ],
      "stateMutability": "view",
      "type": "function"
    },
    {
      "inputs": [
        {
          "internalType": "uint256",
          "name": "index",
          "type": "uint256"
        }
      ],
      "name": "getTokenCategoryByIndex",
      "outputs": [
        {
          "internalType": "string",
          "name": "",
          "type": "string"
        }
      ],
      "stateMutability": "view",
      "type": "function"
    },
    {
      "inputs": [
        {
          "internalType": "address",
          "name": "owner",
          "type": "address"
        },
        {
          "internalType": "address",
          "name": "operator",
          "type": "address"
        }
      ],
      "name": "isApprovedForAll",
      "outputs": [
        {
          "internalType": "bool",
          "name": "",
          "type": "bool"
        }
      ],
      "stateMutability": "view",
      "type": "function"
    },
    {
      "inputs": [
        {
          "internalType": "address",
          "name": "recipient",
          "type": "address"
        },
        {
          "internalType": "string",
          "name": "tokenURI",
          "type": "string"
        }
      ],
      "name": "mintNFT",
      "outputs": [
        {
          "internalType": "uint256",
          "name": "",
          "type": "uint256"
        }
      ],
      "stateMutability": "nonpayable",
      "type": "function"
    },
    {
      "inputs": [
        {
          "internalType": "address",
          "name": "recipient",
          "type": "address"
        },
        {
          "internalType": "string",
          "name": "tokenURI",
          "type": "string"
        },
        {
          "internalType": "string",
          "name": "category",
          "type": "string"
        }
      ],
      "name": "mintNFTWithCategory",
      "outputs": [
        {
          "internalType": "uint256",
          "name": "",
          "type": "uint256"
        }
      ],
      "stateMutability": "nonpayable",
      "type": "function"
    },
    {
      "inputs": [],
      "name": "name",
      "outputs": [
        {
          "internalType": "string",
          "name": "",
          "type": "string"
        }
      ],
      "stateMutability": "view",
      "type": "function"
    },
    {
      "inputs": [],
      "name": "owner",
      "outputs": [
        {
          "internalType": "address",
          "name": "",
          "type": "address"
        }
      ],
      "stateMutability": "view",
      "type": "function"
    },
    {
      "inputs": [
        {
          "internalType": "uint256",
          "name": "tokenId",
          "type": "uint256"
        }
      ],
      "name": "ownerOf",
      "outputs": [
        {
          "internalType": "address",
          "name": "",
          "type": "address"
        }
      ],
      "stateMutability": "view",
      "type": "function"
    },
    {
      "inputs": [],
      "name": "renounceOwnership",
      "outputs": [],
      "stateMutability": "nonpayable",
      "type": "function"
    },
    {
      "inputs": [
        {
          "internalType": "address",
          "name": "from",
          "type": "address"
        },
        {
          "internalType": "address",
          "name": "to",
          "type": "address"
        },
        {
          "internalType": "uint256",
          "name": "tokenId",
          "type": "uint256"
        }
      ],
      "name": "safeTransferFrom",
      "outputs": [],
      "stateMutability": "nonpayable",
      "type": "function"
    },
    {
      "inputs": [
        {
          "internalType": "address",
          "name": "from",
          "type": "address"
        },
        {
          "internalType": "address",
          "name": "to",
          "type": "address"
        },
        {
          "internalType": "uint256",
          "name": "tokenId",
          "type": "uint256"
        },
        {
          "internalType": "bytes",
          "name": "_data",
          "type": "bytes"
        }
      ],
      "name": "safeTransferFrom",
      "outputs": [],
      "stateMutability": "nonpayable",
      "type": "function"
    },
    {
      "inputs": [
        {
          "internalType": "address",
          "name": "operator",
          "type": "address"
        },
        {
          "internalType": "bool",
          "name": "approved",
          "type": "bool"
        }
      ],
      "name": "setApprovalForAll",
      "outputs": [],
      "stateMutability": "nonpayable",
      "type": "function"
    },
    {
      "inputs": [
        {
          "internalType": "bytes4",
          "name": "interfaceId",
          "type": "bytes4"
        }
      ],
      "name": "supportsInterface",
      "outputs": [
        {
          "internalType": "bool",
          "name": "",
          "type": "bool"
        }
      ],
      "stateMutability": "view",
      "type": "function"
    },
    {
      "inputs": [],
      "name": "symbol",
      "outputs": [
        {
          "internalType": "string",
          "name": "",
          "type": "string"
        }
      ],
      "stateMutability": "view",
      "type": "function"
    },
    {
      "inputs": [
        {
          "internalType": "uint256",
          "name": "index",
          "type": "uint256"
        }
      ],
      "name": "tokenByIndex",
      "outputs": [
        {
          "internalType": "uint256",
          "name": "",
          "type": "uint256"
        }
      ],
      "stateMutability": "view",
      "type": "function"
    },
    {
      "inputs": [
        {
          "internalType": "address",
          "name": "owner",
          "type": "address"
        },
        {
          "internalType": "uint256",
          "name": "index",
          "type": "uint256"
        }
      ],
      "name": "tokenOfOwnerByIndex",
      "outputs": [
        {
          "internalType": "uint256",
          "name": "",
          "type": "uint256"
        }
      ],
      "stateMutability": "view",
      "type": "function"
    },
    {
      "inputs": [
        {
          "internalType": "uint256",
          "name": "tokenId",
          "type": "uint256"
        }
      ],
      "name": "tokenURI",
      "outputs": [
        {
          "internalType": "string",
          "name": "",
          "type": "string"
        }
      ],
      "stateMutability": "view",
      "type": "function"
    },
    {
      "inputs": [],
      "name": "totalSupply",
      "outputs": [
        {
          "internalType": "uint256",
          "name": "",
          "type": "uint256"
        }
      ],
      "stateMutability": "view",
      "type": "function"
    },
    {
      "inputs": [
        {
          "internalType": "address",
          "name": "from",
          "type": "address"
        },
        {
          "internalType": "address",
          "name": "to",
          "type": "address"
        },
        {
          "internalType": "uint256",
          "name": "tokenId",
          "type": "uint256"
        }
      ],
      "name": "transferFrom",
      "outputs": [],
      "stateMutability": "nonpayable",
      "type": "function"
    },
    {
      "inputs": [
        {
          "internalType": "address",
          "name": "newOwner",
          "type": "address"
        }
      ],
      "name": "transferOwnership",
      "outputs": [],
      "stateMutability": "nonpayable",
      "type": "function"
    }
  ],
  "bytecode": "0x60806040523480156200001157600080fd5b506040518060400160405280600781526020017f536565644e4654000000000000000000000000000000000000000000000000008152506040518060400160405280600481526020017f5365656400000000000000000000000000000000000000000000000000000000815250816000908051906020019062000096929190620001a6565b508060019080519060200190620000af929190620001a6565b505050620000d2620000c6620000d860201b60201c565b620000e060201b60201c565b620002bb565b600033905090565b6000600c60009054906101000a900473ffffffffffffffffffffffffffffffffffffffff16905081600c60006101000a81548173ffffffffffffffffffffffffffffffffffffffff021916908373ffffffffffffffffffffffffffffffffffffffff1602179055508173ffffffffffffffffffffffffffffffffffffffff168173ffffffffffffffffffffffffffffffffffffffff167f8be0079c531659141344cd1fd0a4f28419497f9722a3daafe3b4186f6b6457e060405160405180910390a35050565b828054620001b49062000256565b90600052602060002090601f016020900481019282620001d8576000855562000224565b82601f10620001f357805160ff191683800117855562000224565b8280016001018555821562000224579182015b828111156200022357825182559160200191906001019062000206565b5b50905062000233919062000237565b5090565b5b808211156200025257600081600090555060010162000238565b5090565b600060028204905060018216806200026f57607f821691505b602082108114156200028657620002856200028c565b5b50919050565b7f4e487b7100000000000000000000000000000000000000000000000000000000600052602260045260246000fd5b613ac580620002cb6000396000f3fe608060405234801561001057600080fd5b506004361061014d5760003560e01c806370a08231116100c3578063b88d4fde1161007c578063b88d4fde146103c4578063c87b56dd146103e0578063e985e9c514610410578063eacabe1414610440578063ec35fbc914610470578063f2fde38b1461048c5761014d565b806370a0823114610302578063715018a6146103325780638da5cb5b1461033c57806395515e091461035a57806395d89b411461038a578063a22cb465146103a85761014d565b806318160ddd1161011557806318160ddd1461021c57806323b872dd1461023a5780632f745c591461025657806342842e0e146102865780634f6ccce7146102a25780636352211e146102d25761014d565b806301ffc9a71461015257806306fdde0314610182578063081812fc146101a0578063095ea7b3146101d057806314bd7850146101ec575b600080fd5b61016c60048036038101906101679190612876565b6104a8565b6040516101799190612d70565b60405180910390f35b61018a6104ba565b6040516101979190612d8b565b60405180910390f35b6101ba60048036038101906101b591906128d0565b61054c565b6040516101c79190612d09565b60405180910390f35b6101ea60048036038101906101e59190612836565b6105d1565b005b610206600480360381019061020191906127ab565b6106e9565b604051610213919061302d565b60405180910390f35b61022461078a565b604051610231919061302d565b60405180910390f35b610254600480360381019061024f9190612639565b610797565b005b610270600480360381019061026b9190612836565b6107f7565b60405161027d919061302d565b60405180910390f35b6102a0600480360381019061029b9190612639565b61089c565b005b6102bc60048036038101906102b791906128d0565b6108bc565b6040516102c9919061302d565b60405180910390f35b6102ec60048036038101906102e791906128d0565b61092d565b6040516102f99190612d09565b60405180910390f35b61031c600480360381019061031791906125cc565b6109df565b604051610329919061302d565b60405180910390f35b61033a610a97565b005b610344610b1f565b6040516103519190612d09565b60405180910390f35b610374600480360381019061036f91906128d0565b610b49565b6040516103819190612d8b565b60405180910390f35b610392610bee565b60405161039f9190612d8b565b60405180910390f35b6103c260048036038101906103bd919061270f565b610c80565b005b6103de60048036038101906103d9919061268c565b610e01565b005b6103fa60048036038101906103f591906128d0565b610e63565b6040516104079190612d8b565b60405180910390f35b61042a600480360381019061042591906125f9565b610e75565b6040516104379190612d70565b60405180910390f35b61045a6004803603810190610455919061274f565b610f09565b604051610467919061302d565b60405180910390f35b61048a600480360381019061048591906128fd565b610fbd565b005b6104a660048036038101906104a191906125cc565b610fe9565b005b60006104b3826110e1565b9050919050565b6060600080546104c990613283565b80601f01602080910402602001604051908101604052809291908181526020018280546104f590613283565b80156105425780601f1061051757610100808354040283529160200191610542565b820191906000526020600020905b81548152906001019060200180831161052557829003601f168201915b5050505050905090565b60006105578261115b565b610596576040517f08c379a000000000000000000000000000000000000000000000000000000000815260040161058d90612f4d565b60405180910390fd5b6004600083815260200190815260200160002060009054906101000a900473ffffffffffffffffffffffffffffffffffffffff169050919050565b60006105dc8261092d565b90508073ffffffffffffffffffffffffffffffffffffffff168373ffffffffffffffffffffffffffffffffffffffff16141561064d576040517f08c379a000000000000000000000000000000000000000000000000000000000815260040161064490612fcd565b60405180910390fd5b8073ffffffffffffffffffffffffffffffffffffffff1661066c6111c7565b73ffffffffffffffffffffffffffffffffffffffff16148061069b575061069a816106956111c7565b610e75565b5b6106da576040517f08c379a00000000000000000000000000000000000000000000000000000000081526004016106d190612e8d565b60405180910390fd5b6106e483836111cf565b505050565b60006106f36111c7565b73ffffffffffffffffffffffffffffffffffffffff16610711610b1f565b73ffffffffffffffffffffffffffffffffffffffff1614610767576040517f08c379a000000000000000000000000000000000000000000000000000000000815260040161075e90612f6d565b60405180910390fd5b60006107738585610f09565b905061077f8184610fbd565b809150509392505050565b6000600980549050905090565b6107a86107a26111c7565b82611288565b6107e7576040517f08c379a00000000000000000000000000000000000000000000000000000000081526004016107de90612fed565b60405180910390fd5b6107f2838383611366565b505050565b6000610802836109df565b8210610843576040517f08c379a000000000000000000000000000000000000000000000000000000000815260040161083a90612dad565b60405180910390fd5b600760008473ffffffffffffffffffffffffffffffffffffffff1673ffffffffffffffffffffffffffffffffffffffff168152602001908152602001600020600083815260200190815260200160002054905092915050565b6108b783838360405180602001604052806000815250610e01565b505050565b60006108c661078a565b8210610907576040517f08c379a00000000000000000000000000000000000000000000000000000000081526004016108fe9061300d565b60405180910390fd5b6009828154811061091b5761091a61341c565b5b90600052602060002001549050919050565b6000806002600084815260200190815260200160002060009054906101000a900473ffffffffffffffffffffffffffffffffffffffff169050600073ffffffffffffffffffffffffffffffffffffffff168173ffffffffffffffffffffffffffffffffffffffff1614156109d6576040517f08c379a00000000000000000000000000000000000000000000000000000000081526004016109cd90612ecd565b60405180910390fd5b80915050919050565b60008073ffffffffffffffffffffffffffffffffffffffff168273ffffffffffffffffffffffffffffffffffffffff161415610a50576040517f08c379a0000000000000000000000000000000000000000000000000000000008152600401610a4790612ead565b60405180910390fd5b600360008373ffffffffffffffffffffffffffffffffffffffff1673ffffffffffffffffffffffffffffffffffffffff168152602001908152602001600020549050919050565b610a9f6111c7565b73ffffffffffffffffffffffffffffffffffffffff16610abd610b1f565b73ffffffffffffffffffffffffffffffffffffffff1614610b13576040517f08c379a0000000000000000000000000000000000000000000000000000000008152600401610b0a90612f6d565b60405180910390fd5b610b1d60006115c2565b565b6000600c60009054906101000a900473ffffffffffffffffffffffffffffffffffffffff16905090565b6060600b60008381526020019081526020016000208054610b6990613283565b80601f0160208091040260200160405190810160405280929190818152602001828054610b9590613283565b8015610be25780601f10610bb757610100808354040283529160200191610be2565b820191906000526020600020905b815481529060010190602001808311610bc557829003601f168201915b50505050509050919050565b606060018054610bfd90613283565b80601f0160208091040260200160405190810160405280929190818152602001828054610c2990613283565b8015610c765780601f10610c4b57610100808354040283529160200191610c76565b820191906000526020600020905b815481529060010190602001808311610c5957829003601f168201915b5050505050905090565b610c886111c7565b73ffffffffffffffffffffffffffffffffffffffff168273ffffffffffffffffffffffffffffffffffffffff161415610cf6576040517f08c379a0000000000000000000000000000000000000000000000000000000008152600401610ced90612e4d565b60405180910390fd5b8060056000610d036111c7565b73ffffffffffffffffffffffffffffffffffffffff1673ffffffffffffffffffffffffffffffffffffffff16815260200190815260200160002060008473ffffffffffffffffffffffffffffffffffffffff1673ffffffffffffffffffffffffffffffffffffffff16815260200190815260200160002060006101000a81548160ff0219169083151502179055508173ffffffffffffffffffffffffffffffffffffffff16610db06111c7565b73ffffffffffffffffffffffffffffffffffffffff167f17307eab39ab6107e8899845ad3d59bd9653f200f220920489ca2b5937696c3183604051610df59190612d70565b60405180910390a35050565b610e12610e0c6111c7565b83611288565b610e51576040517f08c379a0000000000000000000000000000000000000000000000000000000008152600401610e4890612fed565b60405180910390fd5b610e5d84848484611688565b50505050565b6060610e6e826116e4565b9050919050565b6000600560008473ffffffffffffffffffffffffffffffffffffffff1673ffffffffffffffffffffffffffffffffffffffff16815260200190815260200160002060008373ffffffffffffffffffffffffffffffffffffffff1673ffffffffffffffffffffffffffffffffffffffff16815260200190815260200160002060009054906101000a900460ff16905092915050565b6000610f136111c7565b73ffffffffffffffffffffffffffffffffffffffff16610f31610b1f565b73ffffffffffffffffffffffffffffffffffffffff1614610f87576040517f08c379a0000000000000000000000000000000000000000000000000000000008152600401610f7e90612f6d565b60405180910390fd5b610f91600d611836565b6000610f9d600d61184c565b9050610fa9848261185a565b610fb38184611a28565b8091505092915050565b80600b60008481526020019081526020016000209080519060200190610fe49291906123e0565b505050565b610ff16111c7565b73ffffffffffffffffffffffffffffffffffffffff1661100f610b1f565b73ffffffffffffffffffffffffffffffffffffffff1614611065576040517f08c379a000000000000000000000000000000000000000000000000000000000815260040161105c90612f6d565b60405180910390fd5b600073ffffffffffffffffffffffffffffffffffffffff168173ffffffffffffffffffffffffffffffffffffffff1614156110d5576040517f08c379a00000000000000000000000000000000000000000000000000000000081526004016110cc90612ded565b60405180910390fd5b6110de816115c2565b50565b60007f780e9d63000000000000000000000000000000000000000000000000000000007bffffffffffffffffffffffffffffffffffffffffffffffffffffffff1916827bffffffffffffffffffffffffffffffffffffffffffffffffffffffff19161480611154575061115382611a9c565b5b9050919050565b60008073ffffffffffffffffffffffffffffffffffffffff166002600084815260200190815260200160002060009054906101000a900473ffffffffffffffffffffffffffffffffffffffff1673ffffffffffffffffffffffffffffffffffffffff1614159050919050565b600033905090565b816004600083815260200190815260200160002060006101000a81548173ffffffffffffffffffffffffffffffffffffffff021916908373ffffffffffffffffffffffffffffffffffffffff160217905550808273ffffffffffffffffffffffffffffffffffffffff166112428361092d565b73ffffffffffffffffffffffffffffffffffffffff167f8c5be1e5ebec7d5bd14f71427d1e84f3dd0314c0f7b2291e5b200ac8c7c3b92560405160405180910390a45050565b60006112938261115b565b6112d2576040517f08c379a00000000000000000000000000000000000000000000000000000000081526004016112c990612e6d565b60405180910390fd5b60006112dd8361092d565b90508073ffffffffffffffffffffffffffffffffffffffff168473ffffffffffffffffffffffffffffffffffffffff16148061134c57508373ffffffffffffffffffffffffffffffffffffffff166113348461054c565b73ffffffffffffffffffffffffffffffffffffffff16145b8061135d575061135c8185610e75565b5b91505092915050565b8273ffffffffffffffffffffffffffffffffffffffff166113868261092d565b73ffffffffffffffffffffffffffffffffffffffff16146113dc576040517f08c379a00000000000000000000000000000000000000000000000000000000081526004016113d390612f8d565b60405180910390fd5b600073ffffffffffffffffffffffffffffffffffffffff168273ffffffffffffffffffffffffffffffffffffffff16141561144c576040517f08c379a000000000000000000000000000000000000000000000000000000000815260040161144390612e2d565b60405180910390fd5b611457838383611b7e565b6114626000826111cf565b6001600360008573ffffffffffffffffffffffffffffffffffffffff1673ffffffffffffffffffffffffffffffffffffffff16815260200190815260200160002060008282546114b29190613199565b925050819055506001600360008473ffffffffffffffffffffffffffffffffffffffff1673ffffffffffffffffffffffffffffffffffffffff16815260200190815260200160002060008282546115099190613112565b92505081905550816002600083815260200190815260200160002060006101000a81548173ffffffffffffffffffffffffffffffffffffffff021916908373ffffffffffffffffffffffffffffffffffffffff160217905550808273ffffffffffffffffffffffffffffffffffffffff168473ffffffffffffffffffffffffffffffffffffffff167fddf252ad1be2c89b69c2b068fc378daa952ba7f163c4a11628f55a4df523b3ef60405160405180910390a4505050565b6000600c60009054906101000a900473ffffffffffffffffffffffffffffffffffffffff16905081600c60006101000a81548173ffffffffffffffffffffffffffffffffffffffff021916908373ffffffffffffffffffffffffffffffffffffffff1602179055508173ffffffffffffffffffffffffffffffffffffffff168173ffffffffffffffffffffffffffffffffffffffff167f8be0079c531659141344cd1fd0a4f28419497f9722a3daafe3b4186f6b6457e060405160405180910390a35050565b611693848484611366565b61169f84848484611b8e565b6116de576040517f08c379a00000000000000000000000000000000000000000000000000000000081526004016116d590612dcd565b60405180910390fd5b50505050565b60606116ef8261115b565b61172e576040517f08c379a000000000000000000000000000000000000000000000000000000000815260040161172590612f2d565b60405180910390fd5b600060066000848152602001908152602001600020805461174e90613283565b80601f016020809104026020016040519081016040528092919081815260200182805461177a90613283565b80156117c75780601f1061179c576101008083540402835291602001916117c7565b820191906000526020600020905b8154815290600101906020018083116117aa57829003601f168201915b5050505050905060006117d8611d25565b90506000815114156117ee578192505050611831565b60008251111561182357808260405160200161180b929190612ce5565b60405160208183030381529060405292505050611831565b61182c84611d3c565b925050505b919050565b6001816000016000828254019250508190555050565b600081600001549050919050565b600073ffffffffffffffffffffffffffffffffffffffff168273ffffffffffffffffffffffffffffffffffffffff1614156118ca576040517f08c379a00000000000000000000000000000000000000000000000000000000081526004016118c190612f0d565b60405180910390fd5b6118d38161115b565b15611913576040517f08c379a000000000000000000000000000000000000000000000000000000000815260040161190a90612e0d565b60405180910390fd5b61191f60008383611b7e565b6001600360008473ffffffffffffffffffffffffffffffffffffffff1673ffffffffffffffffffffffffffffffffffffffff168152602001908152602001600020600082825461196f9190613112565b92505081905550816002600083815260200190815260200160002060006101000a81548173ffffffffffffffffffffffffffffffffffffffff021916908373ffffffffffffffffffffffffffffffffffffffff160217905550808273ffffffffffffffffffffffffffffffffffffffff16600073ffffffffffffffffffffffffffffffffffffffff167fddf252ad1be2c89b69c2b068fc378daa952ba7f163c4a11628f55a4df523b3ef60405160405180910390a45050565b611a318261115b565b611a70576040517f08c379a0000000000000000000000000000000000000000000000000000000008152600401611a6790612eed565b60405180910390fd5b80600660008481526020019081526020016000209080519060200190611a979291906123e0565b505050565b60007f80ac58cd000000000000000000000000000000000000000000000000000000007bffffffffffffffffffffffffffffffffffffffffffffffffffffffff1916827bffffffffffffffffffffffffffffffffffffffffffffffffffffffff19161480611b6757507f5b5e139f000000000000000000000000000000000000000000000000000000007bffffffffffffffffffffffffffffffffffffffffffffffffffffffff1916827bffffffffffffffffffffffffffffffffffffffffffffffffffffffff1916145b80611b775750611b7682611de3565b5b9050919050565b611b89838383611e4d565b505050565b6000611baf8473ffffffffffffffffffffffffffffffffffffffff16611f61565b15611d18578373ffffffffffffffffffffffffffffffffffffffff1663150b7a02611bd86111c7565b8786866040518563ffffffff1660e01b8152600401611bfa9493929190612d24565b602060405180830381600087803b158015611c1457600080fd5b505af1925050508015611c4557506040513d601f19601f82011682018060405250810190611c4291906128a3565b60015b611cc8573d8060008114611c75576040519150601f19603f3d011682016040523d82523d6000602084013e611c7a565b606091505b50600081511415611cc0576040517f08c379a0000000000000000000000000000000000000000000000000000000008152600401611cb790612dcd565b60405180910390fd5b805181602001fd5b63150b7a0260e01b7bffffffffffffffffffffffffffffffffffffffffffffffffffffffff1916817bffffffffffffffffffffffffffffffffffffffffffffffffffffffff191614915050611d1d565b600190505b949350505050565b606060405180602001604052806000815250905090565b6060611d478261115b565b611d86576040517f08c379a0000000000000000000000000000000000000000000000000000000008152600401611d7d90612fad565b60405180910390fd5b6000611d90611d25565b90506000815111611db05760405180602001604052806000815250611ddb565b80611dba84611f74565b604051602001611dcb929190612ce5565b6040516020818303038152906040525b915050919050565b60007f01ffc9a7000000000000000000000000000000000000000000000000000000007bffffffffffffffffffffffffffffffffffffffffffffffffffffffff1916827bffffffffffffffffffffffffffffffffffffffffffffffffffffffff1916149050919050565b611e588383836120d5565b600073ffffffffffffffffffffffffffffffffffffffff168373ffffffffffffffffffffffffffffffffffffffff161415611e9b57611e96816120da565b611eda565b8173ffffffffffffffffffffffffffffffffffffffff168373ffffffffffffffffffffffffffffffffffffffff1614611ed957611ed88382612123565b5b5b600073ffffffffffffffffffffffffffffffffffffffff168273ffffffffffffffffffffffffffffffffffffffff161415611f1d57611f1881612290565b611f5c565b8273ffffffffffffffffffffffffffffffffffffffff168273ffffffffffffffffffffffffffffffffffffffff1614611f5b57611f5a8282612361565b5b5b505050565b600080823b905060008111915050919050565b60606000821415611fbc576040518060400160405280600181526020017f300000000000000000000000000000000000000000000000000000000000000081525090506120d0565b600082905060005b60008214611fee578080611fd7906132e6565b915050600a82611fe79190613168565b9150611fc4565b60008167ffffffffffffffff81111561200a5761200961344b565b5b6040519080825280601f01601f19166020018201604052801561203c5781602001600182028036833780820191505090505b5090505b600085146120c9576001826120559190613199565b9150600a85612064919061332f565b60306120709190613112565b60f81b8183815181106120865761208561341c565b5b60200101907effffffffffffffffffffffffffffffffffffffffffffffffffffffffffffff1916908160001a905350600a856120c29190613168565b9450612040565b8093505050505b919050565b505050565b600980549050600a600083815260200190815260200160002081905550600981908060018154018082558091505060019003906000526020600020016000909190919091505550565b60006001612130846109df565b61213a9190613199565b905060006008600084815260200190815260200160002054905081811461221f576000600760008673ffffffffffffffffffffffffffffffffffffffff1673ffffffffffffffffffffffffffffffffffffffff168152602001908152602001600020600084815260200190815260200160002054905080600760008773ffffffffffffffffffffffffffffffffffffffff1673ffffffffffffffffffffffffffffffffffffffff168152602001908152602001600020600084815260200190815260200160002081905550816008600083815260200190815260200160002081905550505b6008600084815260200190815260200160002060009055600760008573ffffffffffffffffffffffffffffffffffffffff1673ffffffffffffffffffffffffffffffffffffffff16815260200190815260200160002060008381526020019081526020016000206000905550505050565b600060016009805490506122a49190613199565b90506000600a60008481526020019081526020016000205490506000600983815481106122d4576122d361341c565b5b9060005260206000200154905080600983815481106122f6576122f561341c565b5b906000526020600020018190555081600a600083815260200190815260200160002081905550600a6000858152602001908152602001600020600090556009805480612345576123446133ed565b5b6001900381819060005260206000200160009055905550505050565b600061236c836109df565b905081600760008573ffffffffffffffffffffffffffffffffffffffff1673ffffffffffffffffffffffffffffffffffffffff168152602001908152602001600020600083815260200190815260200160002081905550806008600084815260200190815260200160002081905550505050565b8280546123ec90613283565b90600052602060002090601f01602090048101928261240e5760008555612455565b82601f1061242757805160ff1916838001178555612455565b82800160010185558215612455579182015b82811115612454578251825591602001919060010190612439565b5b5090506124629190612466565b5090565b5b8082111561247f576000816000905550600101612467565b5090565b60006124966124918461306d565b613048565b9050828152602081018484840111156124b2576124b161347f565b5b6124bd848285613241565b509392505050565b60006124d86124d38461309e565b613048565b9050828152602081018484840111156124f4576124f361347f565b5b6124ff848285613241565b509392505050565b60008135905061251681613a33565b92915050565b60008135905061252b81613a4a565b92915050565b60008135905061254081613a61565b92915050565b60008151905061255581613a61565b92915050565b600082601f8301126125705761256f61347a565b5b8135612580848260208601612483565b91505092915050565b600082601f83011261259e5761259d61347a565b5b81356125ae8482602086016124c5565b91505092915050565b6000813590506125c681613a78565b92915050565b6000602082840312156125e2576125e1613489565b5b60006125f084828501612507565b91505092915050565b600080604083850312156126105761260f613489565b5b600061261e85828601612507565b925050602061262f85828601612507565b9150509250929050565b60008060006060848603121561265257612651613489565b5b600061266086828701612507565b935050602061267186828701612507565b9250506040612682868287016125b7565b9150509250925092565b600080600080608085870312156126a6576126a5613489565b5b60006126b487828801612507565b94505060206126c587828801612507565b93505060406126d6878288016125b7565b925050606085013567ffffffffffffffff8111156126f7576126f6613484565b5b6127038782880161255b565b91505092959194509250565b6000806040838503121561272657612725613489565b5b600061273485828601612507565b92505060206127458582860161251c565b9150509250929050565b6000806040838503121561276657612765613489565b5b600061277485828601612507565b925050602083013567ffffffffffffffff81111561279557612794613484565b5b6127a185828601612589565b9150509250929050565b6000806000606084860312156127c4576127c3613489565b5b60006127d286828701612507565b935050602084013567ffffffffffffffff8111156127f3576127f2613484565b5b6127ff86828701612589565b925050604084013567ffffffffffffffff8111156128205761281f613484565b5b61282c86828701612589565b9150509250925092565b6000806040838503121561284d5761284c613489565b5b600061285b85828601612507565b925050602061286c858286016125b7565b9150509250929050565b60006020828403121561288c5761288b613489565b5b600061289a84828501612531565b91505092915050565b6000602082840312156128b9576128b8613489565b5b60006128c784828501612546565b91505092915050565b6000602082840312156128e6576128e5613489565b5b60006128f4848285016125b7565b91505092915050565b6000806040838503121561291457612913613489565b5b6000612922858286016125b7565b925050602083013567ffffffffffffffff81111561294357612942613484565b5b61294f85828601612589565b9150509250929050565b612962816131cd565b82525050565b612971816131df565b82525050565b6000612982826130cf565b61298c81856130e5565b935061299c818560208601613250565b6129a58161348e565b840191505092915050565b60006129bb826130da565b6129c581856130f6565b93506129d5818560208601613250565b6129de8161348e565b840191505092915050565b60006129f4826130da565b6129fe8185613107565b9350612a0e818560208601613250565b80840191505092915050565b6000612a27602b836130f6565b9150612a328261349f565b604082019050919050565b6000612a4a6032836130f6565b9150612a55826134ee565b604082019050919050565b6000612a6d6026836130f6565b9150612a788261353d565b604082019050919050565b6000612a90601c836130f6565b9150612a9b8261358c565b602082019050919050565b6000612ab36024836130f6565b9150612abe826135b5565b604082019050919050565b6000612ad66019836130f6565b9150612ae182613604565b602082019050919050565b6000612af9602c836130f6565b9150612b048261362d565b604082019050919050565b6000612b1c6038836130f6565b9150612b278261367c565b604082019050919050565b6000612b3f602a836130f6565b9150612b4a826136cb565b604082019050919050565b6000612b626029836130f6565b9150612b6d8261371a565b604082019050919050565b6000612b85602e836130f6565b9150612b9082613769565b604082019050919050565b6000612ba86020836130f6565b9150612bb3826137b8565b602082019050919050565b6000612bcb6031836130f6565b9150612bd6826137e1565b604082019050919050565b6000612bee602c836130f6565b9150612bf982613830565b604082019050919050565b6000612c116020836130f6565b9150612c1c8261387f565b602082019050919050565b6000612c346029836130f6565b9150612c3f826138a8565b604082019050919050565b6000612c57602f836130f6565b9150612c62826138f7565b604082019050919050565b6000612c7a6021836130f6565b9150612c8582613946565b604082019050919050565b6000612c9d6031836130f6565b9150612ca882613995565b604082019050919050565b6000612cc0602c836130f6565b9150612ccb826139e4565b604082019050919050565b612cdf81613237565b82525050565b6000612cf182856129e9565b9150612cfd82846129e9565b91508190509392505050565b6000602082019050612d1e6000830184612959565b92915050565b6000608082019050612d396000830187612959565b612d466020830186612959565b612d536040830185612cd6565b8181036060830152612d658184612977565b905095945050505050565b6000602082019050612d856000830184612968565b92915050565b60006020820190508181036000830152612da581846129b0565b905092915050565b60006020820190508181036000830152612dc681612a1a565b9050919050565b60006020820190508181036000830152612de681612a3d565b9050919050565b60006020820190508181036000830152612e0681612a60565b9050919050565b60006020820190508181036000830152612e2681612a83565b9050919050565b60006020820190508181036000830152612e4681612aa6565b9050919050565b60006020820190508181036000830152612e6681612ac9565b9050919050565b60006020820190508181036000830152612e8681612aec565b9050919050565b60006020820190508181036000830152612ea681612b0f565b9050919050565b60006020820190508181036000830152612ec681612b32565b9050919050565b60006020820190508181036000830152612ee681612b55565b9050919050565b60006020820190508181036000830152612f0681612b78565b9050919050565b60006020820190508181036000830152612f2681612b9b565b9050919050565b60006020820190508181036000830152612f4681612bbe565b9050919050565b60006020820190508181036000830152612f6681612be1565b9050919050565b60006020820190508181036000830152612f8681612c04565b9050919050565b60006020820190508181036000830152612fa681612c27565b9050919050565b60006020820190508181036000830152612fc681612c4a565b9050919050565b60006020820190508181036000830152612fe681612c6d565b9050919050565b6000602082019050818103600083015261300681612c90565b9050919050565b6000602082019050818103600083015261302681612cb3565b9050919050565b60006020820190506130426000830184612cd6565b92915050565b6000613052613063565b905061305e82826132b5565b919050565b6000604051905090565b600067ffffffffffffffff8211156130885761308761344b565b5b6130918261348e565b9050602081019050919050565b600067ffffffffffffffff8211156130b9576130b861344b565b5b6130c28261348e565b9050602081019050919050565b600081519050919050565b600081519050919050565b600082825260208201905092915050565b600082825260208201905092915050565b600081905092915050565b600061311d82613237565b915061312883613237565b9250827fffffffffffffffffffffffffffffffffffffffffffffffffffffffffffffffff0382111561315d5761315c613360565b5b828201905092915050565b600061317382613237565b915061317e83613237565b92508261318e5761318d61338f565b5b828204905092915050565b60006131a482613237565b91506131af83613237565b9250828210156131c2576131c1613360565b5b828203905092915050565b60006131d882613217565b9050919050565b60008115159050919050565b60007fffffffff0000000000000000000000000000000000000000000000000000000082169050919050565b600073ffffffffffffffffffffffffffffffffffffffff82169050919050565b6000819050919050565b82818337600083830152505050565b60005b8381101561326e578082015181840152602081019050613253565b8381111561327d576000848401525b50505050565b6000600282049050600182168061329b57607f821691505b602082108114156132af576132ae6133be565b5b50919050565b6132be8261348e565b810181811067ffffffffffffffff821117156132dd576132dc61344b565b5b80604052505050565b60006132f182613237565b91507fffffffffffffffffffffffffffffffffffffffffffffffffffffffffffffffff82141561332457613323613360565b5b600182019050919050565b600061333a82613237565b915061334583613237565b9250826133555761335461338f565b5b828206905092915050565b7f4e487b7100000000000000000000000000000000000000000000000000000000600052601160045260246000fd5b7f4e487b7100000000000000000000000000000000000000000000000000000000600052601260045260246000fd5b7f4e487b7100000000000000000000000000000000000000000000000000000000600052602260045260246000fd5b7f4e487b7100000000000000000000000000000000000000000000000000000000600052603160045260246000fd5b7f4e487b7100000000000000000000000000000000000000000000000000000000600052603260045260246000fd5b7f4e487b7100000000000000000000000000000000000000000000000000000000600052604160045260246000fd5b600080fd5b600080fd5b600080fd5b600080fd5b6000601f19601f8301169050919050565b7f455243373231456e756d657261626c653a206f776e657220696e646578206f7560008201527f74206f6620626f756e6473000000000000000000000000000000000000000000602082015250565b7f4552433732313a207472616e7366657220746f206e6f6e20455243373231526560008201527f63656976657220696d706c656d656e7465720000000000000000000000000000602082015250565b7f4f776e61626c653a206e6577206f776e657220697320746865207a65726f206160008201527f6464726573730000000000000000000000000000000000000000000000000000602082015250565b7f4552433732313a20746f6b656e20616c7265616479206d696e74656400000000600082015250565b7f4552433732313a207472616e7366657220746f20746865207a65726f2061646460008201527f7265737300000000000000000000000000000000000000000000000000000000602082015250565b7f4552433732313a20617070726f766520746f2063616c6c657200000000000000600082015250565b7f4552433732313a206f70657261746f7220717565727920666f72206e6f6e657860008201527f697374656e7420746f6b656e0000000000000000000000000000000000000000602082015250565b7f4552433732313a20617070726f76652063616c6c6572206973206e6f74206f7760008201527f6e6572206e6f7220617070726f76656420666f7220616c6c0000000000000000602082015250565b7f4552433732313a2062616c616e636520717565727920666f7220746865207a6560008201527f726f206164647265737300000000000000000000000000000000000000000000602082015250565b7f4552433732313a206f776e657220717565727920666f72206e6f6e657869737460008201527f656e7420746f6b656e0000000000000000000000000000000000000000000000602082015250565b7f45524337323155524953746f726167653a2055524920736574206f66206e6f6e60008201527f6578697374656e7420746f6b656e000000000000000000000000000000000000602082015250565b7f4552433732313a206d696e7420746f20746865207a65726f2061646472657373600082015250565b7f45524337323155524953746f726167653a2055524920717565727920666f722060008201527f6e6f6e6578697374656e7420746f6b656e000000000000000000000000000000602082015250565b7f4552433732313a20617070726f76656420717565727920666f72206e6f6e657860008201527f697374656e7420746f6b656e0000000000000000000000000000000000000000602082015250565b7f4f776e61626c653a2063616c6c6572206973206e6f7420746865206f776e6572600082015250565b7f4552433732313a207472616e73666572206f6620746f6b656e2074686174206960008201527f73206e6f74206f776e0000000000000000000000000000000000000000000000602082015250565b7f4552433732314d657461646174613a2055524920717565727920666f72206e6f60008201527f6e6578697374656e7420746f6b656e0000000000000000000000000000000000602082015250565b7f4552433732313a20617070726f76616c20746f2063757272656e74206f776e6560008201527f7200000000000000000000000000000000000000000000000000000000000000602082015250565b7f4552433732313a207472616e736665722063616c6c6572206973206e6f74206f60008201527f776e6572206e6f7220617070726f766564000000000000000000000000000000602082015250565b7f455243373231456e756d657261626c653a20676c6f62616c20696e646578206f60008201527f7574206f6620626f756e64730000000000000000000000000000000000000000602082015250565b613a3c816131cd565b8114613a4757600080fd5b50565b613a53816131df565b8114613a5e57600080fd5b50565b613a6a816131eb565b8114613a7557600080fd5b50565b613a8181613237565b8114613a8c57600080fd5b5056fea2646970667358221220eabd990c22c179af2876d3a311e27d6c24bb80d216a357ca429463fe547c44b764736f6c63430008060033",
  "linkReferences": {},
  "deployedLinkReferences": {}
}